:020000040800F2
:1000000070460020E9020008A3110008C310000890
:10001000A111000843050008A51400080000000015
:10002000000000000000000000000000290200089D
:1000300045050008000000008502000801130008C3
:100040000303000803030008030300080303000878
:100050000303000803030008030300080303000868
:100060000303000803030008030300080303000858
:100070000303000803030008030300080303000848
:100080000303000803030008030300080303000838
:100090000303000803030008030300080303000828
:1000A0000303000803030008030300080303000818
:1000B0000303000803030008030300080303000808
:1000C00003030008030300080303000803030008F8
:1000D00003030008030300080303000803030008E8
:1000E00003030008030300080303000803030008D8
:1000F00003030008030300080303000803030008C8
:1001000003030008030300080303000803030008B7
:100110000303000803030008D113000803030008C9
:100120000303000803030008030300080303000897
:100130000303000803030008030300080303000887
:100140000303000803030008030300080303000877
:100150000303000803030008030300080303000867
:100160000303000803030008030300080303000857
:100170000303000803030008030300080000000055
:10018000030300080303000800F002F800F03CF845
:100190000AA090E8000C82448344AAF10107DA45E2
:1001A00001D100F031F8AFF2090EBAE80F0013F0F8
:1001B000010F18BFFB1A43F001031847281D000068
:1001C000481D0000103A24BF78C878C1FAD85207F9
:1001D00024BF30C830C144BF04680C6070470000C1
:1001E0000023002400250026103A28BF78C1FBD840
:1001F000520728BF30C148BF0B6070471FB501F0E0
:100200004BFE1FBD10B510BD00F061F91146FFF7A0
:10021000F5FF01F058F900F07FF903B4FFF7F2FFA2
:1002200003BC00F087F900002C4B19680868B0E89F
:10023000F04F80F30988BFF36F8F4FF0000080F319
:10024000118870470000000008480068006880F3CB
:1002500008884FF0000080F3148862B661B6BFF3DF
:100260004F8FBFF36F8F00DF00BF00BF08ED00E0CE
:10027000DFF80C00016841F470010160704700BFB5
:1002800088ED00E0EFF30980BFF36F8F134B1A681E
:100290001EF0100F08BF20ED108A20E9F04F10600B
:1002A00009B44FF0500080F31188BFF34F8FBFF3B4
:1002B0006F8F01F029FC4FF0000080F3118809BC1A
:1002C00019680868B0E8F04F1EF0100F08BFB0ECD6
:1002D000108A80F30988BFF36F8F704718000020E1
:1002E000EFF3058070470000094880470948004740
:1002F000FEE7FEE7FEE7FEE7FEE7FEE7FEE7FEE7D6
:10030000FEE7FEE704480549054A064B7047000032
:10031000C1130008890100087040002070460020C9
:10032000704200207042002053EA020C00F0698005
:100330002DE9F04B4FF00006002B1FBFB3FA83F5F9
:1003400003FA05F424FA05F65E4012BF1643B2FA2A
:1003500082F502FA05F4C5F120051EBF22FA05FC5C
:1003600044EA0C04203556EA044C4FEA144418BF02
:10037000641C4FF000084FF00009904271EB030C31
:1003800039D3002919BFB1FA81F701FA07F6B0FA9B
:1003900080F700FA07F6C7F120071EBF20FA07FC16
:1003A00046EA0C062037B6FBF4FCA7EB0507103F26
:1003B00007F01F0BCBF120060CFA0BFB2CFA06F60C
:1003C00044BFB3460026202FA4BF5E464FF0000B6B
:1003D0005BEA060C08BF4FF0010B19EB0B09ABFBF6
:1003E000027C48EB0608C01B06FB02CC0BFB03CCCF
:1003F00071EB0C01C1E70B46024641464846BDE899
:10040000F08B13B54FF000004FF00001AFF3008008
:10041000BDE81C40704710B5203AC0F00B80B1E831
:100420001850203AA0E81850B1E81850A0E8185029
:10043000BFF4F5AF5FEA027C24BFB1E81850A0E832
:10044000185044BF18C918C0BDE810405FEA827C4C
:1004500024BF51F8043B40F8043B08BF7047D20763
:1004600028BF31F8023B48BF11F8012B28BF20F804
:10047000023B48BF00F8012B70474FF0000200B567
:10048000134694469646203922BFA0E80C50A0E8B7
:100490000C50B1F12001BFF4F7AF090728BFA0E865
:1004A0000C5048BF0CC05DF804EB890028BF40F831
:1004B000042B08BF704748BF20F8022B11F0804F73
:1004C00018BF00F8012B704770477047704775469A
:1004D00000F02CF8AE4605006946534620F00700B0
:1004E000854618B020B5FFF70DFFBDE820404FF05E
:1004F00000064FF000074FF000084FF0000B21F00E
:100500000701AC46ACE8C009ACE8C009ACE8C009DA
:10051000ACE8C0098D46704710B50446AFF30080C3
:100520002046BDE81040FFF778BE00000048704745
:100530000C40002001491820ABBEFEE72600020057
:100540007047FEE77047000070B5044600F018F9E8
:100550000546601C02D004480078044400F010F9FD
:10056000401BA042FAD370BD080000202DE9F84FCF
:10057000DFF8BCA1002201250AF1040B03264FF08D
:100580000F090BF1040E00BF0B6805FA02F42340BB
:10059000A34270D10F7907F00307012F01D0022F7A
:1005A00016D187684FEA420806FA08FC27EA0C07CA
:1005B000D1F80CC00CFA08FC4CEA070CC0F808C0D3
:1005C0004768A7430C79C4F3001494403C4344604B
:1005D0000C79E443A4070AD0C4684FEA420C06FA37
:1005E0000CF7BC438F6807FA0CF72743C7600C79F8
:1005F00004F00304022C12D1D40800EB840CDCF8C4
:1006000020405707FF0E09FA07F824EA0804D1F83A
:10061000108008FA07F848EA0408CCF8208004683B
:100620004FEA420C06FA0CF7BC430F7907F00307B8
:1006300007FA0CF7274307604C6814F4403F70D06A
:100640003C4C276847F480472760246822F0030762
:1006500004F480440094384C07EB040CDCF80848A0
:1006600097074FEA177809FA08F7BC43334FB842A7
:1006700002D1002724E054E0314FB84201D10127D4
:100680001EE0304FB84201D1022719E02E4FB84288
:1006900001D1032714E02D4FB84201D104270FE008
:1006A0002B4FB84201D105270AE02A4FB84201D1A9
:1006B000062705E0284FB84201D1072700E00827A8
:1006C00007FA08F72743CCF80878DAF800405746CD
:1006D000D1F804C09C435FEACC3C00D51C433C608D
:1006E000DBF800405F46D1F804C09C435FEA8C3CD5
:1006F00000D51C433C60DEF800407746D1F804C0CA
:100700009C435FEACC2C00D51C433C60084F0C375F
:100710003C68D1F804C09C435FEA8C2C00D51C4394
:100720003C60521C102AFFF42FAFBDE8F88F000088
:10073000003C0140443802400030014000000240CB
:100740000004024000080240000C02400010024079
:100750000014024000180240001C024000690840DA
:1007600000D001207047426921EA02030A4043EAAF
:100770000241816170470AB1816170470904FBE75A
:100780000148806870470000080000200248816826
:100790000278114481607047080000200B4810B5B2
:1007A000016841F400710160016841F480610160F9
:1007B000016841F480710160032000F08DF80F2082
:1007C00000F006F800F03EF8002010BD003C0240AA
:1007D00010B5014688B00022362000F05DF83620C2
:1007E00000F04CF813480024016841F0100101604A
:1007F000006805A900F010000690684600F018F99E
:1008000000F036F90C494000B0FBF1F10C480B4AFE
:10081000491E026040F2E732C0E90324C0E9011436
:1008200000F020FB10B1012008B010BD044800F01A
:1008300047FBF9E74038024040420F0000100040FB
:10084000D40200200C4882B0016841F4804101606C
:10085000006800F4804000900748001F016841F0E4
:10086000805101600068002200F0805000900F214C
:10087000901E02B000F010B844380240002809DB96
:1008800000F01F02012191404009800000F1E020AA
:10089000C0F8001170470000F0B40E4B1B680C4606
:1008A000C3F30223C3F10705042D00D90425191D44
:1008B000072901D2002300E0DB1E012606FA05F11C
:1008C000491E214099409E40761E16403143F0BC9F
:1008D00000F0E9BD0CED00E0064900F007020868F1
:1008E0004FF6FF03184040EA0220034A1043086015
:1008F000704700000CED00E00000FA052DE9F0471C
:100900000E46050065D0DFF81481D8F80000F7B274
:1009100000F00700B04207D288F80070D8F8000055
:1009200000F00700B04254D128683D4C810712D531
:10093000400703D5206840F4E05020602878000785
:1009400003D5206840F4604020602068A96820F04A
:10095000F000084320602878C0072DD0304968682F
:100960000839012812D0022813D0032811D00968B1
:10097000890700292DDA216821F003010143216054
:10098000FFF7FEFE814641F2883A0EE009688903CE
:10099000EFE709688901ECE7FFF7F2FEA0EB090138
:1009A000514502D90320BDE8F0872068696800F04E
:1009B0000C00B0EB810FEFD1D8F80010404601F0E9
:1009C0000701B14207D90770006800F00700B04284
:1009D00001D00120E7E72878400705D52068E968BD
:1009E00020F4E050084320602878000706D52068EE
:1009F000296920F4604040EAC100206000F048F816
:100A00002168084AC1F30311515CC84006490860D7
:100A100006480068FFF7DCFE0020C4E7003C024007
:100A200008380240C01E0008140000200C000020FE
:100A30000F2202600C4A136803F00303436013683B
:100A400003F0F0038360136803F4E053C36012689B
:100A50004FF4E05303EAD20202610448006800F058
:100A6000070008607047000008380240003C024060
:100A70000448054900680968044AC1F38221515CB1
:100A8000C84070471400002008380240D01E0008FB
:100A9000154810B5006810F00C02144813D0144922
:100AA000042A0FD0082A0ED10F4C241F2268236875
:100AB00002F03F025B0207D52068C0F38810A0FB5C
:100AC000010106E0084610BD2168C1F38811A1FBB1
:100AD00000010023FFF728FC2168C1F30141491CF4
:100AE0004900B0FBF1F010BD083802400024F400CA
:100AF00080BA8C012DE9F84F04006ED02078DFF821
:100B00004C93C007A9F104054AD009F1040001681B
:100B1000C1F38101012908D00068C0F381000228D7
:100B20000AD1D9F80000400206D52868800337D5DD
:100B300060680028E1D033E06068B0F5803F10D0F5
:100B4000B0F5A02F286810D020F4803028602868E5
:100B500020F4802028606068A8B1FFF711FE0646E7
:100B60000DE0286840F48030F4E740F480202860ED
:100B7000F7E700BFFFF704FE801B642873D82868DE
:100B80008003F7D50CE0FFF7FBFD064605E000BF4C
:100B9000FFF7F6FD801B6428F0D828688003F7D49F
:100BA0002078DFF8AC8280074FF0000A3ED5A748D6
:100BB000001D016811F00C0F08D00068C0F381001F
:100BC00002280BD1D9F80000400207D4286880071A
:100BD00016D5E068012800D112E033E1E068B8B131
:100BE0000120C8F80000FFF7CBFD064605E000BF76
:100BF000FFF7C6FD801B0228C0D828688007F7D5FC
:100C00002868216920F0F80040EAC10028600DE062
:100C1000C8F800A0FFF7B4FD064604E0FFF7B0FDFA
:100C2000801B02281FD828688007F7D42078000787
:100C300022D5864F87486169703771B10121016003
:100C4000FFF79EFD064604E0FFF79AFD801B022891
:100C500009D838688007F7D50EE0C0F800A0FFF784
:100C60008FFD064605E082E0FFF78AFD801B022823
:100C70007DD838688007F7D42078400768D5DFF83A
:100C8000CCB100270BF13C0BDBF80000C0000BD40B
:100C9000DBF8001041F08051CBF80010DBF80000C9
:100CA000012700F0805000906B4E3068C00510D4D2
:100CB000306840F480703060FFF762FD009005E01E
:100CC000FFF75EFD0099401A022850D83068C00531
:100CD000F6D55E4EA0686C3601280FD00528306826
:100CE00010D020F001003060306820F00400306047
:100CF000A068B8B1FFF744FD00900FE0306840F005
:100D00000100F4E740F004003060F7E7FFF738FD3A
:100D10000099411A41F28830814266D830688007D4
:100D2000F4D50EE0FFF72CFD009007E0FFF728FD5B
:100D30000099411A41F28830814256D830688007C4
:100D4000F4D42FB1DBF8001021F08051CBF8001063
:100D5000A069C8B33D49091D0968C1F38101022991
:100D60004AD00228504607D0C8F8600000E03CE0B6
:100D7000FFF706FD04463BE04746C8F86000FFF772
:100D8000FFFC064605E000BFFFF7FAFC801B0228C7
:100D90002BD828688001F7D4D4E907010843A16A59
:100DA0002E4A490802EB0141626A41EA8211084376
:100DB00094F82C1040EA0161C9F80010012038664F
:100DC000FFF7DEFC044606E03EE000BFFFF7D8FC7C
:100DD000001B022809D828688001F7D534E000BF3D
:100DE000FFF7CEFC001B022802D90320BDE8F88FD4
:100DF00028688001F4D427E00128F7D0D9F8000052
:100E0000E26900F4800191421CD1226A00F03F01A6
:100E1000914217D147F6C071626A0140B1EB821F5F
:100E200010D1A26A4FF0FF3300F4403103EB5202BD
:100E3000B1EB024F06D194F82C1000F07060B0EBCB
:100E4000016F01D00120D1E70020CFE70438024034
:100E500000004742800E4742007000400000FFFF44
:100E60007047704710B5040003D094F83D0010B1EE
:100E700007E0012010BD002084F83C00204600F06F
:100E80001EF8022084F83D00211D206800F0A6FA1B
:100E9000012084F8460084F83E0084F83F0084F87E
:100EA000400084F8410084F8420084F8430084F84C
:100EB000440084F8450084F83D00002010BD7047D0
:100EC00090F83D10012901D001207047022180F8DF
:100ED0003D100168CA6842F00102CA600068114909
:100EE000884214D0B0F1804F11D00F4988420ED003
:100EF0000E4988420BD00E49884208D00D498842DD
:100F000005D00D49884202D00C49884204D181683D
:100F100001F00701062903D0016841F001010160D9
:100F2000002070470000014000040040000800401D
:100F3000000C004000040140004001400018004047
:100F4000704770B50446006801694FF00005C94359
:100F5000890715D4C168C943890711D4E91E016105
:100F600001202077206880698007204602D0FFF7A3
:100F7000E7FF04E000F098F8204600F096F82577A7
:100F800020680169C943490717D4C168C9434907A3
:100F900013D46FF00401016102202077206880697A
:100FA00010F4407F204602D0FFF7CAFF04E000F0B3
:100FB0007BF8204600F079F8257720680169C9435D
:100FC000090716D4C168C943090712D46FF0080194
:100FD0000161042020772068C0698007204602D084
:100FE000FFF7AEFF04E000F05FF8204600F05DF888
:100FF000257720680169C943C90617D4C168C94368
:10100000C90613D46FF01001016108202077206811
:10101000C06910F4407F204602D0FFF791FF04E042
:1010200000F042F8204600F040F82577206801697A
:10103000C943C90708D1C168C943C90704D1891E7A
:101040000161204600F032F820680169C9430906B1
:1010500009D4C168C943090605D46FF08001016154
:101060002046FFF7FDFE20680169C943490609D4FF
:10107000C168C943490605D46FF0400101612046AB
:1010800000F01EF820680169C94389060BD4C168C5
:10109000C943890607D46FF0200101612046BDE8ED
:1010A0007040FFF7DEBE70BD7047704700680349AF
:1010B000884201D1FFF76ABB704700000010004072
:1010C0007047FEE700B587B01C2206496846FFF767
:1010D000A2F90021684600F00CFA0349486007B005
:1010E00000BD0000A41E000800000020F0B587B07D
:1010F00014216846FFF7C1F925480025016841F031
:1011000010010160016801F010010591016841F0D2
:1011100004010160016801F004010591016841F0DA
:1011200020010160016801F020010591016841F092
:1011300080010160016801F080010591016841F0C2
:10114000010101600068134F00F001004FF4C06618
:101150000590002231463846FFF70DFB1C20CDE9F3
:1011600000050124694602940B48FFF7FFF9CDE919
:1011700000640226CDE9024669463846FFF7F6F9D3
:101180008DE8700069460548FFF7F0F907B0F0BD3B
:1011900030380240001402400010024000000240BB
:1011A000FEE7FEE7534D00244FF4C06701223946A5
:1011B0002846FFF7E0FA1420FFF7C6F90022394667
:1011C0002846FFF7D8FA1420FFF7BEF9641C0A2C52
:1011D000ECD3012239462846FFF7CDFA464EDFF818
:1011E0001C814FF0000904213046FFF7B7FA0028B0
:1011F00075D11420FFF7A8F904213046FFF7AEFAA5
:1012000030B16CE0401C20700A20FFF79DF900E02F
:10121000444604213046FFF7A1FA0028207811D077
:10122000642812D3002239462846FFF7A4FA4FF467
:10123000FA60FFF789F904213046FFF78FFA00289A
:10124000F9D04CE06428DDD3ECE784F80190A046A7
:101250001420FFF779F904213046FFF77FFAD8B957
:1012600088F800900024012239462846FFF783FAC7
:101270001420FFF769F9002239462846FFF77BFA68
:101280001420FFF761F9641C0A2CECD304213046CA
:10129000FFF764FA0028F9D098F80110491CC9B288
:1012A00088F801101429D3D398F80000322816D2F8
:1012B000A8B1012239462846FFF75DFA00224FF413
:1012C00000712846FFF757FA0024C820FFF73CF9C1
:1012D00039462846FFF747FA641C0A2CF5D388F8EC
:1012E000009088F80190012239462846FFF743FA1A
:1012F00079E70000001402400010024000000020C6
:1013000010B5502080F31188BFF34F8FBFF36F8F5C
:1013100000F0FAFC18B104494FF08050086000203A
:1013200080F3118810BD000004ED00E030B593B0EB
:1013300030216846FFF7A1F814210CA8FFF79DF8AB
:101340001D480025016841F080510160006800F0EF
:10135000805011901948016841F480410160006893
:10136000022400F4804011900120009000040190BC
:101370008001CDE906400D200890A820CDE90904A0
:1013800004200B906846FFF7B5FB08B172B6FEE784
:101390000CA90F2081E831004FF4A0500F904FF4BA
:1013A0008050109005210CA8FFF7A8FA002801D062
:1013B00072B6FEE713B030BD403802400070004006
:1013C0000248016841F470010160704788ED00E057
:1013D0000148FFF7B6BD0000D4020020F0B5026856
:1013E000254C264D264E274F274B4FF0804CA042D0
:1013F00009D0604507D0A84205D0B04203D0B8421A
:1014000001D0984204D122F0700E4A6842EA0E02DE
:10141000A0421BD0604519D0A84217D0B04215D0C9
:10142000B84213D0984211D0184DA8420ED0184D92
:10143000A8420BD0174DA84208D0174DA84205D09E
:10144000164DA84202D0164DA84203D122F4407591
:10145000CA682A434D6922F080022A4302608A68E2
:10146000C2620A688262A04201D0984201D1096931
:10147000016301214161F0BD000001400004004012
:1014800000080040000C0040000401400040014002
:10149000004401400048014000180040001C00408A
:1014A00000200040FEE70907090E002804DB00F1D8
:1014B000E02080F80014704700F00F0000F1E020F9
:1014C00080F8141D7047FFF769F9FFF72FFFFFF74A
:1014D0000DFEFFF7F7FD00F007F8FEE701460020DC
:1014E000842900D0C81C704710B500F0CFFA002046
:1014F00010BD7FB50D4604464169B0F9080081B1C1
:10150000A16971B1FFF7EAFFD4E905128DE8070080
:10151000D4E900102B46226900F0CBFB039004B005
:1015200070BDFFF7DBFF03A9CDE90001208A2B4640
:1015300082B2D4E9001000F08FFB012801D0002016
:10154000EDE70398EBE700002DE9F041054600F0D8
:1015500025FA2E4CA068401CA06020682C4F10B1CA
:10156000606940B32DE02560A068012829D10026DC
:1015700006EB860007EB800000F0F6F9761C072EDC
:10158000F6D323488C3000F0EFF92148A03000F06A
:10159000EBF91F48B43000F0E7F91D48C83000F0FF
:1015A000E3F91B48DC3000F0DFF919488C30606348
:1015B0001430A06305E02068E96AC06A884200D858
:1015C0002560606A401C6062E96A012022698840E7
:1015D0001043206101EB810007EB8000291D00F022
:1015E000D1F900F0FBF9606900280CD02068E96AA5
:1015F000C06A884207D207494FF080500860BFF3A5
:101600004F8FBFF36F8FBDE8F081000018000020FE
:101610001C03002004ED00E010B5044690F85100D2
:1016200058B101280CD002280FD0502080F3118827
:10163000BFF34F8FBFF36F8FFEE7206B00F0E2F92F
:101640002046BDE8104000F0DDB910BD10484FF451
:101650007051420706D0C01D0D4920F00700411A05
:10166000C1F570510B4A00230144C2E90003083957
:10167000183A21F0070111604B600B600B1AC0E9AA
:10168000001393604FF000405360506170470000BA
:101690000C0400206C000020144E154CA6F1C80765
:1016A0004FF08058DFF84C9012E000BF00F076F960
:1016B000F068C568281D00F039F9A068401EA060D8
:1016C0006068401E606000F089F92846FFF7A4FFBB
:1016D00060680028EAD138680128F9D9C9F8008083
:1016E000BFF34F8FBFF36F8FF2E70000E4030020DA
:1016F0001800002004ED00E02DE9F0479A46DDE9EE
:10170000098481466FF00303206B03EB82021044CF
:10171000089E20F00707780707D0502080F3118833
:10172000BFF34F8FBFF36F8FFEE7002561B100203D
:1017300023180A5C83F834200A5C12B1401C10287C
:10174000F6D384F8435001E084F83450072E00D3D8
:101750000626E662C4E91165201D00F010F904F1C7
:10176000180000F00CF92461C6F107006462A06162
:10177000E56484F8505052464946384600F0C0F8B7
:101780002060B8F1000F01D0C8F80040BDE8F08734
:1017900030B5114900E011460A688242FBD34B681C
:1017A0005C18844203D14068184448600846436886
:1017B0001C18944209D1084C183C2468A24209D054
:1017C00052681A4442600A6812680260814200D07E
:1017D000086030BD0460F9E76C0000200648416BEA
:1017E000096829B1416BC968C96849688162704755
:1017F0004FF0FF31FAE70000180000200848406869
:10180000401C4FF0500080F3118804D0BFF34F8F7D
:10181000BFF36F8FFEE7BFF34F8FBFF36F8FFEE70E
:10182000740000202DE9F0410546002700F064F91E
:10183000324E306808B9FFF709FF706905424ED192
:10184000C5B3083568070ED005F00700C0F10800E1
:101850000544680707D0502080F31188BFF34F8FED
:10186000BFF36F8FFEE72DB37068854237D82348EA
:10187000183001460C6801E020460C466168A94218
:1018800002D221680029F7D131688C4227D007683D
:101890002168016060680837411B10290FD9601961
:1018A000420708D0502080F31188BFF34F8FBFF359
:1018B0006F8FFEE713E041606560FFF769FF6168C5
:1018C0007068401A7060B268904200D2B06070696F
:1018D00001430020C4E90001F068401CF06000F002
:1018E00079FA780707D0502080F31188BFF34F8F23
:1018F000BFF36F8FFEE73846BDE8F081540000204B
:1019000010B5031F4FF080741C601B1F21F00101F4
:101910001960191F044B0B6014390A60091F6FF01E
:10192000020244380A6010BDFD170008D0E90132F8
:1019300001699A60D0E901235A604A68824201D164
:1019400082684A60002202610868401E08600868D8
:1019500070470000034B036003F1540008608020CF
:10196000106070478000002000F108014FF0FF3246
:10197000C0E90112C16001610021016070470021CE
:101980000161704742684A6093688B609368596050
:10199000916008610168491C01607047502080F324
:1019A0001188BFF34F8FBFF36F8F0A494868401CFF
:1019B000486001280CD10848006810F0FF0F07D0DC
:1019C000502080F31188BFF34F8FBFF36F8FFEE776
:1019D000704700007400002004ED00E008494868EA
:1019E00028B1401E486001D180F311887047502013
:1019F00080F31188BFF34F8FBFF36F8FFEE70000B6
:101A00007400002070B500282AD0164DA0F10804FB
:101A100060686969084207D1502080F31188BFF3DC
:101A20004F8FBFF36F8FFEE722683AB1502080F3EB
:101A30001188BFF34F8FBFF36F8FFEE7884360605D
:101A400000F05AF860686968084468602046FFF74B
:101A50009FFE2869401C2861BDE8704000F0BAB9BB
:101A600070BD0000540000204FF0E0200021016113
:101A7000816105494FF47A720968B1FBF2F1491EA0
:101A800041610721016170471400002010B586B044
:101A90000024039405AA04A903A80494FFF75AFF9D
:101AA000DDE903010094CDE9011000230EA11048E7
:101AB000059A00F0FEF80F490028C86211D05020A6
:101AC00080F31188BFF34F8FBFF36F8F4FF0FF305C
:101AD000886201204861CC6006B0BDE8104000F08B
:101AE00041B806B010BD000049444C45000000005C
:101AF00099160008180000200248016B491C016378
:101B000070470000180000201448016B11B101213A
:101B1000C16170470021C1610169B1FA81F1C1F170
:101B20001F0101EB81020E4951F822306BB101EB2C
:101B3000820101F108034A6852684A609A4201D161
:101B400052684A60D16801607047502080F3118864
:101B5000BFF34F8FBFF36F8FFEE700001800002028
:101B60001C0300201CB537480168374A914207D151
:101B7000502080F31188BFF34F8FBFF36F8FFEE7C4
:101B800000683149491E884207D1502080F31188EE
:101B9000BFF34F8FBFF36F8FFEE72C49087801909A
:101BA000FF20087008788DF800009DF800009DF86F
:101BB000002000F0F000904207D0502080F3118800
:101BC000BFF34F8FBFF36F8FFEE79DF80000204CEF
:101BD00000F0500020700720A06005E09DF8002074
:101BE00052008DF80020401E9DF800201206F5D40A
:101BF000A060032807D0502080F31188BFF34F8FD7
:101C0000BFF36F8FFEE74FF44070A060019808703B
:101C10000C482030016841F470010160016841F016
:101C200070410160FFF720FF00206060FEF720FB9D
:101C30000848016841F040410160FEF705FB0020C3
:101C40001CBD000000ED00E071C20F4100E400E0A7
:101C50007400002034EF00E02DE9FF5F8346DDE9EA
:101C60000E87994616468A469000FFF7DBFD050071
:101C70001CD05420FFF7D6FD040014D000202563AB
:101C800084F85100CDE90240CDE900874B46324649
:101C900051465846FFF730FD2046FFF755FC01201E
:101CA00004B0BDE8F09F2846FFF7ACFE4FF0FF30D0
:101CB000F6E7F0B585B0DDE90B640A9DA6B1DCB1AD
:101CC000542700972663022684F85160002604AF4B
:101CD000CDE90246CDE90057FFF70EFD2046FFF79C
:101CE00033FC049805B0F0BD502080F31188BFF399
:101CF0004F8FBFF36F8FFEE7502080F31188BFF343
:101D00004F8FBFF36F8FFEE72DE9F0412F4C002678
:101D1000206B28B1A069401CA0613046BDE8F0816D
:101D2000E5686D1CE56013D1606B006838B1502028
:101D300080F31188BFF34F8FBFF36F8FFEE7606BA7
:101D4000A16B6163A063206A401C2062FFF746FD1F
:101D5000A06ADFF87C80854209D3606B0068A0B17F
:101D6000606BC068C7687868854211D2A06220683D
:101D7000C06A00EB800158F82100012800D9012633
:101D8000E0690028C9D00126C7E74FF0FF30EDE732
:101D9000381DFFF7CBFDB86A18B107F11800FFF73F
:101DA000C5FDF96A0120226988401043206101EBDA
:101DB000810108EB8100391DFFF7E4FDF86A216815
:101DC000C96A8842C9D30126C7E70000180000206D
:101DD0001C0300202DE9F0472C4D00242746286BDA
:101DE00038B1FFF7DBFD286B401E2863286B40B13C
:101DF00046E0502080F31188BFF34F8FBFF36F8F01
:101E0000FEE7A968224E0120D1B3A6F1B4098046AD
:101E10003068E8B1F068C46804F11800FFF786FD87
:101E2000201DFFF783FDE06A2A6908FA00F11143DB
:101E3000296100EB800109EB8100211DFFF7A2FD64
:101E4000E06A2968C96A8842E2D3C5F81C80DFE7E6
:101E50000CB1FFF7C3FCAC6944B14646FFF754FF31
:101E600000B1EE61641EF9D10020A861E86938B1C3
:101E70000849012738070860BFF34F8FBFF36F8F02
:101E8000FFF7ACFD3846BDE8F087000018000020E1
:101E9000D003002004ED00E04FF04070E1EE100AA6
:101EA00070470000D81E0008A511000800000000BF
:101EB00000000000800000000000000000000000A2
:101EC00000000000000000000102030406070809EA
:101ED000000000000102030464656661756C7454BF
:101EE00061736B00041F00080000002080000000E8
:101EF000C4010008841F000880000020F045000095
:101F0000E0010008000000000000000001000000E7
:101F100010000000000000000024F4000000000099
:101F200000000000000000000000000000000000B1
:101F300000000000000000000000000000000000A1
:101F40000000000000000000000000000000000091
:101F50000000000000000000000000000000000081
:101F60000000000000000000000000000000000071
:101F7000000000000000000000000000AAAAAAAAB9
:041F8000000000005D
:040000050800018965
:00000001FF
